{
  "_format": "hh-sol-artifact-1",
  "contractName": "TestLibrary",
  "sourceName": "testData/testLibrary.sol",
  "abi": [
    {
      "inputs": [
        {
          "internalType": "string",
          "name": "message",
          "type": "string"
        }
      ],
      "name": "messageLen",
      "outputs": [
        {
          "internalType": "uint256",
          "name": "",
          "type": "uint256"
        }
      ],
      "stateMutability": "pure",
      "type": "function"
    }
  ],
  "bytecode": "0x610282610053600b82828239805160001a607314610046577f4e487b7100000000000000000000000000000000000000000000000000000000600052600060045260246000fd5b30600052607381538281f3fe73000000000000000000000000000000000000000030146080604052600436106100355760003560e01c806370e9e9701461003a575b600080fd5b610054600480360381019061004f91906101cf565b61006a565b6040516100619190610231565b60405180910390f35b600081519050919050565b6000604051905090565b600080fd5b600080fd5b600080fd5b600080fd5b6000601f19601f8301169050919050565b7f4e487b7100000000000000000000000000000000000000000000000000000000600052604160045260246000fd5b6100dc82610093565b810181811067ffffffffffffffff821117156100fb576100fa6100a4565b5b80604052505050565b600061010e610075565b905061011a82826100d3565b919050565b600067ffffffffffffffff82111561013a576101396100a4565b5b61014382610093565b9050602081019050919050565b82818337600083830152505050565b600061017261016d8461011f565b610104565b90508281526020810184848401111561018e5761018d61008e565b5b610199848285610150565b509392505050565b600082601f8301126101b6576101b5610089565b5b81356101c684826020860161015f565b91505092915050565b6000602082840312156101e5576101e461007f565b5b600082013567ffffffffffffffff81111561020357610202610084565b5b61020f848285016101a1565b91505092915050565b6000819050919050565b61022b81610218565b82525050565b60006020820190506102466000830184610222565b9291505056fea26469706673582212202fa29cde0778fe9f3269b5b84d196f6ea81e722ca9e54b0261307d36857e692764736f6c63430008110033",
  "linkReferences": {},
  "deployedLinkReferences": {}
}