{"testData/testContract.sol":{"TestContract":{"abi":[{"inputs":[{"internalType":"string","name":"word","type":"string"}],"stateMutability":"nonpayable","type":"constructor"},{"inputs":[],"name":"len","outputs":[{"internalType":"uint256","name":"","type":"uint256"}],"stateMutability":"view","type":"function"}],"evm":{"bytecode":{"linkReferences":{"testData/testLibrary.sol":{"TestLibrary":[{"length":20,"start":52}]}},"object":"608060405234801561001057600080fd5b5060405161040f38038061040f8339818101604052810190610032919061022b565b73__$d5359f5ca1d3814a48eeced7a1983cec51$__6370e9e970826040518263ffffffff1660e01b815260040161006991906102c9565b602060405180830381865af4158015610086573d6000803e3d6000fd5b505050506040513d601f19601f820116820180604052508101906100aa9190610321565b6000819055505061034e565b6000604051905090565b600080fd5b600080fd5b600080fd5b600080fd5b6000601f19601f8301169050919050565b7f4e487b7100000000000000000000000000000000000000000000000000000000600052604160045260246000fd5b61011d826100d4565b810181811067ffffffffffffffff8211171561013c5761013b6100e5565b5b80604052505050565b600061014f6100b6565b905061015b8282610114565b919050565b600067ffffffffffffffff82111561017b5761017a6100e5565b5b610184826100d4565b9050602081019050919050565b60005b838110156101af578082015181840152602081019050610194565b60008484015250505050565b60006101ce6101c984610160565b610145565b9050828152602081018484840111156101ea576101e96100cf565b5b6101f5848285610191565b509392505050565b600082601f830112610212576102116100ca565b5b81516102228482602086016101bb565b91505092915050565b600060208284031215610241576102406100c0565b5b600082015167ffffffffffffffff81111561025f5761025e6100c5565b5b61026b848285016101fd565b91505092915050565b600081519050919050565b600082825260208201905092915050565b600061029b82610274565b6102a5818561027f565b93506102b5818560208601610191565b6102be816100d4565b840191505092915050565b600060208201905081810360008301526102e38184610290565b905092915050565b6000819050919050565b6102fe816102eb565b811461030957600080fd5b50565b60008151905061031b816102f5565b92915050565b600060208284031215610337576103366100c0565b5b60006103458482850161030c565b91505092915050565b60b38061035c6000396000f3fe6080604052348015600f57600080fd5b506004361060285760003560e01c806356d88e2714602d575b600080fd5b60336047565b604051603e91906064565b60405180910390f35b60005481565b6000819050919050565b605e81604d565b82525050565b6000602082019050607760008301846057565b9291505056fea2646970667358221220230dafbc2d39c13d226b703cc01f89ce960f85262667480452b85eb1b9d7edae64736f6c63430008110033","opcodes":"PUSH1 0x80 PUSH1 0x40 MSTORE CALLVALUE DUP1 ISZERO PUSH2 0x10 JUMPI PUSH1 0x0 DUP1 REVERT JUMPDEST POP PUSH1 0x40 MLOAD PUSH2 0x40F CODESIZE SUB DUP1 PUSH2 0x40F DUP4 CODECOPY DUP2 DUP2 ADD PUSH1 0x40 MSTORE DUP2 ADD SWAP1 PUSH2 0x32 SWAP2 SWAP1 PUSH2 0x22B JUMP JUMPDEST PUSH20 0x0 PUSH4 0x70E9E970 DUP3 PUSH1 0x40 MLOAD DUP3 PUSH4 0xFFFFFFFF AND PUSH1 0xE0 SHL DUP2 MSTORE PUSH1 0x4 ADD PUSH2 0x69 SWAP2 SWAP1 PUSH2 0x2C9 JUMP JUMPDEST PUSH1 0x20 PUSH1 0x40 MLOAD DUP1 DUP4 SUB DUP2 DUP7 GAS DELEGATECALL ISZERO DUP1 ISZERO PUSH2 0x86 JUMPI RETURNDATASIZE PUSH1 0x0 DUP1 RETURNDATACOPY RETURNDATASIZE PUSH1 0x0 REVERT JUMPDEST POP POP POP POP PUSH1 0x40 MLOAD RETURNDATASIZE PUSH1 0x1F NOT PUSH1 0x1F DUP3 ADD AND DUP3 ADD DUP1 PUSH1 0x40 MSTORE POP DUP2 ADD SWAP1 PUSH2 0xAA SWAP2 SWAP1 PUSH2 0x321 JUMP JUMPDEST PUSH1 0x0 DUP2 SWAP1 SSTORE POP POP PUSH2 0x34E JUMP JUMPDEST PUSH1 0x0 PUSH1 0x40 MLOAD SWAP1 POP SWAP1 JUMP JUMPDEST PUSH1 0x0 DUP1 REVERT JUMPDEST PUSH1 0x0 DUP1 REVERT JUMPDEST PUSH1 0x0 DUP1 REVERT JUMPDEST PUSH1 0x0 DUP1 REVERT JUMPDEST PUSH1 0x0 PUSH1 0x1F NOT PUSH1 0x1F DUP4 ADD AND SWAP1 POP SWAP2 SWAP1 POP JUMP JUMPDEST PUSH32 0x4E487B7100000000000000000000000000000000000000000000000000000000 PUSH1 0x0 MSTORE PUSH1 0x41 PUSH1 0x4 MSTORE PUSH1 0x24 PUSH1 0x0 REVERT JUMPDEST PUSH2 0x11D DUP3 PUSH2 0xD4 JUMP JUMPDEST DUP2 ADD DUP2 DUP2 LT PUSH8 0xFFFFFFFFFFFFFFFF DUP3 GT OR ISZERO PUSH2 0x13C JUMPI PUSH2 0x13B PUSH2 0xE5 JUMP JUMPDEST JUMPDEST DUP1 PUSH1 0x40 MSTORE POP POP POP JUMP JUMPDEST PUSH1 0x0 PUSH2 0x14F PUSH2 0xB6 JUMP JUMPDEST SWAP1 POP PUSH2 0x15B DUP3 DUP3 PUSH2 0x114 JUMP JUMPDEST SWAP2 SWAP1 POP JUMP JUMPDEST PUSH1 0x0 PUSH8 0xFFFFFFFFFFFFFFFF DUP3 GT ISZERO PUSH2 0x17B JUMPI PUSH2 0x17A PUSH2 0xE5 JUMP JUMPDEST JUMPDEST PUSH2 0x184 DUP3 PUSH2 0xD4 JUMP JUMPDEST SWAP1 POP PUSH1 0x20 DUP2 ADD SWAP1 POP SWAP2 SWAP1 POP JUMP JUMPDEST PUSH1 0x0 JUMPDEST DUP4 DUP2 LT ISZERO PUSH2 0x1AF JUMPI DUP1 DUP3 ADD MLOAD DUP2 DUP5 ADD MSTORE PUSH1 0x20 DUP2 ADD SWAP1 POP PUSH2 0x194 JUMP JUMPDEST PUSH1 0x0 DUP5 DUP5 ADD MSTORE POP POP POP POP JUMP JUMPDEST PUSH1 0x0 PUSH2 0x1CE PUSH2 0x1C9 DUP5 PUSH2 0x160 JUMP JUMPDEST PUSH2 0x145 JUMP JUMPDEST SWAP1 POP DUP3 DUP2 MSTORE PUSH1 0x20 DUP2 ADD DUP5 DUP5 DUP5 ADD GT ISZERO PUSH2 0x1EA JUMPI PUSH2 0x1E9 PUSH2 0xCF JUMP JUMPDEST JUMPDEST PUSH2 0x1F5 DUP5 DUP3 DUP6 PUSH2 0x191 JUMP JUMPDEST POP SWAP4 SWAP3 POP POP POP JUMP JUMPDEST PUSH1 0x0 DUP3 PUSH1 0x1F DUP4 ADD SLT PUSH2 0x212 JUMPI PUSH2 0x211 PUSH2 0xCA JUMP JUMPDEST JUMPDEST DUP2 MLOAD PUSH2 0x222 DUP5 DUP3 PUSH1 0x20 DUP7 ADD PUSH2 0x1BB JUMP JUMPDEST SWAP2 POP POP SWAP3 SWAP2 POP POP JUMP JUMPDEST PUSH1 0x0 PUSH1 0x20 DUP3 DUP5 SUB SLT ISZERO PUSH2 0x241 JUMPI PUSH2 0x240 PUSH2 0xC0 JUMP JUMPDEST JUMPDEST PUSH1 0x0 DUP3 ADD MLOAD PUSH8 0xFFFFFFFFFFFFFFFF DUP2 GT ISZERO PUSH2 0x25F JUMPI PUSH2 0x25E PUSH2 0xC5 JUMP JUMPDEST JUMPDEST PUSH2 0x26B DUP5 DUP3 DUP6 ADD PUSH2 0x1FD JUMP JUMPDEST SWAP2 POP POP SWAP3 SWAP2 POP POP JUMP JUMPDEST PUSH1 0x0 DUP2 MLOAD SWAP1 POP SWAP2 SWAP1 POP JUMP JUMPDEST PUSH1 0x0 DUP3 DUP3 MSTORE PUSH1 0x20 DUP3 ADD SWAP1 POP SWAP3 SWAP2 POP POP JUMP JUMPDEST PUSH1 0x0 PUSH2 0x29B DUP3 PUSH2 0x274 JUMP JUMPDEST PUSH2 0x2A5 DUP2 DUP6 PUSH2 0x27F JUMP JUMPDEST SWAP4 POP PUSH2 0x2B5 DUP2 DUP6 PUSH1 0x20 DUP7 ADD PUSH2 0x191 JUMP JUMPDEST PUSH2 0x2BE DUP2 PUSH2 0xD4 JUMP JUMPDEST DUP5 ADD SWAP2 POP POP SWAP3 SWAP2 POP POP JUMP JUMPDEST PUSH1 0x0 PUSH1 0x20 DUP3 ADD SWAP1 POP DUP2 DUP2 SUB PUSH1 0x0 DUP4 ADD MSTORE PUSH2 0x2E3 DUP2 DUP5 PUSH2 0x290 JUMP JUMPDEST SWAP1 POP SWAP3 SWAP2 POP POP JUMP JUMPDEST PUSH1 0x0 DUP2 SWAP1 POP SWAP2 SWAP1 POP JUMP JUMPDEST PUSH2 0x2FE DUP2 PUSH2 0x2EB JUMP JUMPDEST DUP2 EQ PUSH2 0x309 JUMPI PUSH1 0x0 DUP1 REVERT JUMPDEST POP JUMP JUMPDEST PUSH1 0x0 DUP2 MLOAD SWAP1 POP PUSH2 0x31B DUP2 PUSH2 0x2F5 JUMP JUMPDEST SWAP3 SWAP2 POP POP JUMP JUMPDEST PUSH1 0x0 PUSH1 0x20 DUP3 DUP5 SUB SLT ISZERO PUSH2 0x337 JUMPI PUSH2 0x336 PUSH2 0xC0 JUMP JUMPDEST JUMPDEST PUSH1 0x0 PUSH2 0x345 DUP5 DUP3 DUP6 ADD PUSH2 0x30C JUMP JUMPDEST SWAP2 POP POP SWAP3 SWAP2 POP POP JUMP JUMPDEST PUSH1 0xB3 DUP1 PUSH2 0x35C PUSH1 0x0 CODECOPY PUSH1 0x0 RETURN INVALID PUSH1 0x80 PUSH1 0x40 MSTORE CALLVALUE DUP1 ISZERO PUSH1 0xF JUMPI PUSH1 0x0 DUP1 REVERT JUMPDEST POP PUSH1 0x4 CALLDATASIZE LT PUSH1 0x28 JUMPI PUSH1 0x0 CALLDATALOAD PUSH1 0xE0 SHR DUP1 PUSH4 0x56D88E27 EQ PUSH1 0x2D JUMPI JUMPDEST PUSH1 0x0 DUP1 REVERT JUMPDEST PUSH1 0x33 PUSH1 0x47 JUMP JUMPDEST PUSH1 0x40 MLOAD PUSH1 0x3E SWAP2 SWAP1 PUSH1 0x64 JUMP JUMPDEST PUSH1 0x40 MLOAD DUP1 SWAP2 SUB SWAP1 RETURN JUMPDEST PUSH1 0x0 SLOAD DUP2 JUMP JUMPDEST PUSH1 0x0 DUP2 SWAP1 POP SWAP2 SWAP1 POP JUMP JUMPDEST PUSH1 0x5E DUP2 PUSH1 0x4D JUMP JUMPDEST DUP3 MSTORE POP POP JUMP JUMPDEST PUSH1 0x0 PUSH1 0x20 DUP3 ADD SWAP1 POP PUSH1 0x77 PUSH1 0x0 DUP4 ADD DUP5 PUSH1 0x57 JUMP JUMPDEST SWAP3 SWAP2 POP POP JUMP INVALID LOG2 PUSH5 0x6970667358 0x22 SLT KECCAK256 0x23 0xD 0xAF 0xBC 0x2D CODECOPY 0xC1 RETURNDATASIZE 0x22 PUSH12 0x703CC01F89CE960F85262667 BASEFEE DIV MSTORE 0xB8 0x5E 0xB1 0xB9 0xD7 0xED 0xAE PUSH5 0x736F6C6343 STOP ADDMOD GT STOP CALLER "},"methodIdentifiers":{"len()":"56d88e27"}}}}}