{
  "_format": "hh-sol-artifact-1",
  "contractName": "TestContract",
  "sourceName": "testData/testContract.sol",
  "abi": [
    {
      "inputs": [
        {
          "internalType": "string",
          "name": "word",
          "type": "string"
        }
      ],
      "stateMutability": "nonpayable",
      "type": "constructor"
    },
    {
      "inputs": [],
      "name": "len",
      "outputs": [
        {
          "internalType": "uint256",
          "name": "",
          "type": "uint256"
        }
      ],
      "stateMutability": "view",
      "type": "function"
    }
  ],
  "bytecode": "0x608060405234801561001057600080fd5b5060405161040f38038061040f8339818101604052810190610032919061022b565b73__$d5359f5ca1d3814a48eeced7a1983cec51$__6370e9e970826040518263ffffffff1660e01b815260040161006991906102c9565b602060405180830381865af4158015610086573d6000803e3d6000fd5b505050506040513d601f19601f820116820180604052508101906100aa9190610321565b6000819055505061034e565b6000604051905090565b600080fd5b600080fd5b600080fd5b600080fd5b6000601f19601f8301169050919050565b7f4e487b7100000000000000000000000000000000000000000000000000000000600052604160045260246000fd5b61011d826100d4565b810181811067ffffffffffffffff8211171561013c5761013b6100e5565b5b80604052505050565b600061014f6100b6565b905061015b8282610114565b919050565b600067ffffffffffffffff82111561017b5761017a6100e5565b5b610184826100d4565b9050602081019050919050565b60005b838110156101af578082015181840152602081019050610194565b60008484015250505050565b60006101ce6101c984610160565b610145565b9050828152602081018484840111156101ea576101e96100cf565b5b6101f5848285610191565b509392505050565b600082601f830112610212576102116100ca565b5b81516102228482602086016101bb565b91505092915050565b600060208284031215610241576102406100c0565b5b600082015167ffffffffffffffff81111561025f5761025e6100c5565b5b61026b848285016101fd565b91505092915050565b600081519050919050565b600082825260208201905092915050565b600061029b82610274565b6102a5818561027f565b93506102b5818560208601610191565b6102be816100d4565b840191505092915050565b600060208201905081810360008301526102e38184610290565b905092915050565b6000819050919050565b6102fe816102eb565b811461030957600080fd5b50565b60008151905061031b816102f5565b92915050565b600060208284031215610337576103366100c0565b5b60006103458482850161030c565b91505092915050565b60b38061035c6000396000f3fe6080604052348015600f57600080fd5b506004361060285760003560e01c806356d88e2714602d575b600080fd5b60336047565b604051603e91906064565b60405180910390f35b60005481565b6000819050919050565b605e81604d565b82525050565b6000602082019050607760008301846057565b9291505056fea264697066735822122024d6286cad0f37811152b92bb8b2fa00fc762d78f96db49c275c1cbb6a78736b64736f6c63430008110033",
  "linkReferences": {
    "testData/testLibrary.sol": {
      "TestLibrary": [
        {
          "length": 20,
          "start": 52
        }
      ]
    }
  },
  "deployedLinkReferences": {}
}